:100000000C9434000C9451000C9451000C94510049
:100010000C9451000C94D1020C9451000C94860065
:100020000C9451000C9451000C9451000C9451000C
:100030000C9451000C9451000C9451000C945100FC
:100040000C9451000C9451000C9451000C945100EC
:100050000C9451000C94DD010C9451000C9451004F
:100060000C9451000C94510011241FBECFEFD8E026
:10007000DEBFCDBF11E0A0E0B1E0EEEDFCE002C0DC
:1000800005900D92A230B107D9F721E0A2E0B1E0CE
:1000900001C01D92A932B207E1F70E943E010C9403
:1000A0006D060C94000083E480937C008EE88093BE
:1000B0007A0008958AB184658AB98BB18B7A8BB93D
:1000C0008AB187758AB9E8E6F0E080818460808330
:1000D000EDE6F0E08081886A8083089584B18062D3
:1000E00084B90895E0EBF0E0808182608083E1EBE9
:1000F000F0E080818460808389EF8093B300E0E743
:10010000F0E0808182608083789408951F920F923E
:100110000FB60F9211242F933F934F935F936F93DA
:100120007F938F939F93AF93BF93EF93FF938091B0
:1001300002019091030101969093030180930201C3
:1001400065E070E00E94C005892B11F40E944D010A
:10015000809102019091030164E170E00E94C0056A
:10016000892B11F40E9450018091020190910301AA
:100170006CE370E00E94C005892B11F40E946101BC
:10018000809102019091030168EE73E00E94C00526
:10019000892B31F40E946801109203011092020130
:1001A000FF91EF91BF91AF919F918F917F916F914F
:1001B0005F914F913F912F910F900FBE0F901F9025
:1001C000189584B1866084B982EB809380008AE1BF
:1001D000809381008FE39CE9909387008093860051
:1001E00008959C0140E050E060E472E48FE090E00C
:1001F0000E94F605215031093093C5002093C400B8
:1002000088E98093C10086E08093C20008959091B0
:10021000C00095FFFCCF8093C60008950F931F93F5
:10022000CF93DF9300D000D000D0CDB7DEB74AE047
:10023000BE016F5F7F4F0E94380600E010E004C0EF
:100240000E9407010F5F1F4FE1E0F0E0EC0FFD1F80
:10025000E00FF11F80818111F3CF8AE00E94070136
:100260008DE00E94070126960FB6F894DEBF0FBE00
:10027000CDBFDF91CF911F910F9108950E94720021
:1002800080E895E20E94F1000E9453000E94E10084
:100290000E946E000E945A00FFCF0E94D70108956D
:1002A00080912301909124010E9407046091210113
:1002B0007091220180912501909126010E94E9030D
:1002C00008950E943E020E94BC020E94CB03089542
:1002D000CF93DF938AE00E9407018DE00E9407011F
:1002E0008AE00E9407018DE00E940701C4E0D1E08E
:1002F000888199810E940E018A819B810E940E0152
:100300008C819D810E940E018091200190E00E94CD
:100310000E018AE00E9407018DE00E9407018AE039
:100320000E9407018DE00E940701809127019091B2
:1003300028010E940E01C0E0D0E02DC082E40E949E
:10034000070185E38C1B0E9407018AE30E940701D5
:1003500080E20E940701E4E0F0E0EC1BFD0BE55EAB
:10036000FE4F8081882339F08FE40E9407018EE4DC
:100370000E94070109C08FE40E94070186E40E94E1
:10038000070186E40E9407018AE00E9407018DE0D0
:100390000E9407012196C530D10584F28AE00E94AF
:1003A00007018DE00E940701DF91CF910895EAE7F0
:1003B000F0E080818064808308951F920F920FB6D1
:1003C0000F9211248F939F9380910001823049F402
:1003D000809178009091790090932401809323017B
:1003E00026C080910001813049F48091780090917D
:1003F0007900909326018093250119C08091000116
:10040000811109C080917800909179009093220128
:10041000809321010CC080910001833041F48091D0
:100420007800909179009093280180932701809122
:100430000001823021F481E08093000112C080919C
:100440000001813019F4109200010BC0809100016D
:10045000811104C083E08093000103C082E0809397
:100460000001809100018770806480937C009F91DF
:100470008F910F900FBE0F901F9018958BB18460D5
:100480008BB985E38A95F1F700008BB18B7F8BB92F
:100490008BB180618BB985E38A95F1F700008BB150
:1004A0008F7E8BB98BB180648BB985E38A95F1F728
:1004B00000008BB18F7B8BB90895CF92DF92EF92C2
:1004C000FF920F931F93CF93DF93EC01FC01E65F44
:1004D000FE4F8081813009F046C08E01000F111F50
:1004E000F801E35FFE4F80819181A0E0B0E0AC01B4
:1004F000BD01440F551F661F771F440F551F661F10
:10050000771F6A017B01C80ED91EEA1EFB1EC701B8
:10051000B60124E432E040E050E00E94D405F80146
:10052000EC5FFE4F31832083808191810B97C0F473
:10053000F801EC5FFE4F80819181C130D10549F017
:10054000C230D10551F0209759F481E08093200109
:1005500007C082E08093200103C083E080932001E4
:10056000C65FDE4F1882DF91CF911F910F91FF90F0
:10057000EF90DF90CF900895809104019091050154
:100580000B9770F080910601909107010B9740F056
:1005900080910801909109010B9710F010922001B1
:1005A00008951F920F920FB60F9211242F933F932D
:1005B0004F935F936F937F938F939F93AF93BF936B
:1005C000CF93DF93EF93FF93D9B1C0911301CD2760
:1005D000C3FF20C0D3FF09C08091840090918500A3
:1005E000909315018093140115C08091840090911F
:1005F00085002091140130911501821B930B90937B
:100600000E0180930D0181E080930A0180E090E06B
:100610000E945D02C5FF20C0D5FF09C08091840003
:1006200090918500909317018093160115C08091D9
:100630008400909185002091160130911701821B52
:10064000930B9093100180930F0181E080930B0135
:1006500081E090E00E945D02CC2304F5DD234CF4A0
:1006600080918400909185009093190180931801E6
:1006700015C08091840090918500209118013091DF
:100680001901821B930B909312018093110181E059
:1006900080930C0182E090E00E945D02D0931301F0
:1006A000FF91EF91DF91CF91BF91AF919F918F918A
:1006B0007F916F915F914F913F912F910F900FBE5E
:1006C0000F901F9018959C01A4EBB0E00E941506B6
:1006D0002FEF33E040E050E00E94F605622F70E01B
:1006E00080E090E00E94C50420E030E044E353E461
:1006F0000E94240420E030E04AE755E40E945305BC
:100700000E94960468517C4F709389006093880022
:1007100008956817790720F49C01261B370B02C047
:1007200020E030E0AFE3BCE90E941506DC01CB011C
:10073000072E7AE0B695A795979587957A95D1F784
:10074000702D90938B0080938A000895853D23E05F
:100750009207B8F49C01265C32402135310598F0AF
:100760002E523F4F2B35310580F02C543F4F2B3507
:10077000310568F0865991098135910550F481E081
:10078000089585E0089584E0089583E0089582E067
:10079000089580E0089580912701909128010E949A
:1007A000A60390911A01891799F0882379F0282FD0
:1007B00030E021503109F901E55EFE4F408191E0C2
:1007C000411190E0F901E55EFE4F908380931A019C
:1007D00008959C0190912001913051F028F09230C1
:1007E00079F0933049F00895C9010E948903089572
:1007F000C9010E9489030895C9010E9489030895CF
:1008000060E070E080E090E00E94890308959C0120
:1008100090912001913051F028F0923089F093307E
:1008200051F00895C9010E946303089588EE93E092
:100830000E946303089584E690E00E946303089594
:10084000C9010E94630308950E9438040C9419059D
:100850000E94120558F00E940B0540F029F45F3FFA
:1008600029F00C94020551110C944D050C940805C7
:100870000E942A0568F39923B1F3552391F3951B40
:10088000550BBB27AA2762177307840738F09F5FB1
:100890005F4F220F331F441FAA1FA9F335D00E2E1E
:1008A0003AF0E0E832D091505040E695001CCAF78B
:1008B0002BD0FE2F29D0660F771F881FBB1F26174E
:1008C00037074807AB07B0E809F0BB0B802DBF0125
:1008D000FF2793585F4F3AF09E3F510578F00C94F4
:1008E00002050C944D055F3FE4F3983ED4F38695E2
:1008F00077956795B795F7959F5FC9F7880F911D15
:100900009695879597F90895E1E0660F771F881F00
:10091000BB1F621773078407BA0720F0621B730BB3
:10092000840BBA0BEE1F88F7E09508950E943205FC
:1009300088F09F5798F0B92F9927B751B0F0E1F0A0
:10094000660F771F881F991F1AF0BA95C9F714C050
:10095000B13091F00E944C05B1E008950C944C0523
:10096000672F782F8827B85F39F0B93FCCF3869589
:1009700077956795B395D9F73EF4909580957095E6
:1009800061957F4F8F4F9F4F0895E89409C097FB63
:100990003EF490958095709561957F4F8F4F9F4F56
:1009A0009923A9F0F92F96E9BB279395F69587959A
:1009B00077956795B795F111F8CFFAF4BB0F11F45D
:1009C00060FF1BC06F5F7F4F8F4F9F4F16C0882304
:1009D00011F096E911C0772321F09EE8872F762F3A
:1009E00005C0662371F096E8862F70E060E02AF07B
:1009F0009A95660F771F881FDAF7880F9695879567
:100A000097F9089597F99F6780E870E060E008958E
:100A10009FEF80EC089500240A9416161706180616
:100A20000906089500240A941216130614060506F2
:100A30000895092E0394000C11F4882352F0BB0F83
:100A400040F4BF2B11F460FF04C06F5F7F4F8F4FE6
:100A50009F4F089557FD9058440F551F59F05F3F21
:100A600071F04795880F97FB991F61F09F3F79F0D0
:100A700087950895121613061406551FF2CF469552
:100A8000F1DF08C0161617061806991FF1CF8695D4
:100A90007105610508940895E894BB2766277727B8
:100AA000CB0197F908950E9466050C9419050E94E0
:100AB0000B0538F00E94120520F0952311F00C94DC
:100AC00002050C94080511240C944D050E942A057A
:100AD00070F3959FC1F3950F50E0551F629FF00191
:100AE000729FBB27F00DB11D639FAA27F00DB11DAA
:100AF000AA1F649F6627B00DA11D661F829F222733
:100B0000B00DA11D621F739FB00DA11D621F839FB9
:100B1000A00D611D221F749F3327A00D611D231F8F
:100B2000849F600D211D822F762F6A2F11249F57DD
:100B300050409AF0F1F088234AF0EE0FFF1FBB1FE0
:100B4000661F771F881F91505040A9F79E3F51059F
:100B500080F00C9402050C944D055F3FE4F3983E41
:100B6000D4F3869577956795B795F795E7959F5F49
:100B7000C1F7FE2B880F911D9695879597F90895DB
:100B800097FB072E16F4009407D077FD09D00E943A
:100B9000240607FC05D03EF4909581959F4F08955B
:100BA000709561957F4F0895A1E21A2EAA1BBB1B79
:100BB000FD010DC0AA1FBB1FEE1FFF1FA217B30729
:100BC000E407F50720F0A21BB30BE40BF50B661F3F
:100BD000771F881F991F1A9469F760957095809503
:100BE00090959B01AC01BD01CF010895052E97FBA7
:100BF0001EF400940E940D0657FD07D00E94D405F4
:100C000007FC03D04EF40C940D065095409530959A
:100C100021953F4F4F4F5F4F089590958095709568
:100C200061957F4F8F4F9F4F0895A29FB001B39F53
:100C3000C001A39F700D811D1124911DB29F700DE5
:100C4000811D1124911D0895AA1BBB1B51E107C0F2
:100C5000AA1FBB1FA617B70710F0A61BB70B881F4C
:100C6000991F5A95A9F780959095BC01CD010895DB
:100C7000BB274A3031F4992322F4BDE29095819547
:100C80009F4F0C944406BB27FB015527AA27880FCA
:100C9000991FAA1FA41710F0A41B83955051B9F7F0
:100CA000A05DAA3308F0A95DA193009779F7B1116F
:100CB000B1931192CB010C945D06DC01FC01672F0E
:100CC00071917723E1F7329704C07C916D93708323
:0E0CD0006291AE17BF07C8F30895F894FFCFE6
:020CDE00020012
:00000001FF
