S01700004763634170706C69636174696F6E312E737265635B
S11300000C9434000C9451000C9451000C94510045
S11300100C9451000C9451000C9451000C94670002
S11300200C9451000C9451000C9451000C94510008
S11300300C9451000C9451000C9451000C945100F8
S11300400C9451000C9451000C9451000C945100E8
S11300500C9451000C940D010C9451000C9451001B
S11300600C9451000C94510011241FBECFEFD8E022
S1130070DEBFCDBF11E0A0E0B1E0E0E8F7E002C0F0
S113008005900D92A230B107D9F721E0A2E0B1E0CA
S113009001C01D92AC30B207E1F70E94B8000C9485
S11300A0BE030C940000E0EBF0E08081826080836A
S11300B0E1EBF0E080818460808389EF8093B3007A
S11300C0E0E7F0E0808182608083789408951F9255
S11300D00F920FB60F9211242F933F934F935F9378
S11300E06F937F938F939F93AF93BF93EF93FF93FC
S11300F080910201909103010196909303018093F2
S113010002010E94C20080910201909103016CE3FC
S113011070E00E944603892B11F40E94C300809171
S113012002019091030168EE73E00E944603892B5B
S113013011F40E94E900809102019091030160EDA5
S113014077E00E944603892B11F40E94EA00FF9194
S1130150EF91BF91AF919F918F917F916F915F913B
S11301604F913F912F910F900FBE0F901F901895B4
S11301700E9453000E94EB000E94970184B18062A8
S113018084B9FFCF0895CF93DF930E94F900EC0167
S11301900E94FE000E9403010E94080181309240E7
S11301A020F085B1806285B903C085B18F7D85B9A2
S11301B09E01A4EBB0E00E9479032FEF33E040E00E
S11301C050E00E945A03822F0E947801DF91CF9160
S11301D00895089508958091000187708064809344
S11301E07C00EAE7F0E08EE880838081806480838D
S11301F0089580910A0190910B010895809108015E
S11302009091090108958091060190910701089544
S1130210809104019091050108951F920F920FB6E9
S11302200F9211248F939F93EF93FF93809100017A
S1130230833049F4809178009091790090930B0178
S113024080930A0126C080910001843049F4809192
S1130250780090917900909309018093080119C066
S113026080910001853049F4809178009091790063
S113027090930701809306010CC0809100018630A1
S113028041F48091780090917900909305018093D6
S1130290040180910001833021F484E08093000103
S11302A013C080910001843021F485E08093000123
S11302B00BC080910001853021F486E08093000119
S11302C003C083E080930001809100018770806403
S11302D080937C00EAE7F0E0808180648083FF9172
S11302E0EF919F918F910F900FBE0F901F901895D3
S11302F0682F70E080E090E00E944B0220E030E044
S113030044E353E40E94AA0120E030E04AEF54E4BD
S11303100E94D9020E941C026053784F7093890096
S11303206093880070938B0060938A00089584B171
S1130330866084B982EA809380008AE18093810098
S11303408FE39CE990938700809386008AE50E945E
S1130350780108950E94BE010C949F020E949802A5
S113036058F00E94910240F029F45F3F29F00C9468
S1130370880251110C94D3020C948E020E94B00294
S113038068F39923B1F3552391F3951B550BBB27C0
S1130390AA2762177307840738F09F5F5F4F220F05
S11303A0331F441FAA1FA9F335D00E2E3AF0E0E8FC
S11303B032D091505040E695001CCAF72BD0FE2F46
S11303C029D0660F771F881FBB1F261737074807DA
S11303D0AB07B0E809F0BB0B802DBF01FF27935892
S11303E05F4F3AF09E3F510578F00C9488020C94CC
S11303F0D3025F3FE4F3983ED4F3869577956795EF
S1130400B795F7959F5FC9F7880F911D96958795C6
S113041097F90895E1E0660F771F881FBB1F6217E5
S113042073078407BA0720F0621B730B840BBA0BA3
S1130430EE1F88F7E09508950E94B80288F09F5750
S113044098F0B92F9927B751B0F0E1F0660F771FF4
S1130450881F991F1AF0BA95C9F714C0B13091F0EA
S11304600E94D202B1E008950C94D202672F782F33
S11304708827B85F39F0B93FCCF3869577956795AF
S1130480B395D9F73EF490958095709561957F4F1B
S11304908F4F9F4F0895E89409C097FB3EF49095C1
S11304A08095709561957F4F8F4F9F4F9923A9F049
S11304B0F92F96E9BB279395F695879577956795D8
S11304C0B795F111F8CFFAF4BB0F11F460FF1BC01C
S11304D06F5F7F4F8F4F9F4F16C0882311F096E9AF
S11304E011C0772321F09EE8872F762F05C066235D
S11304F071F096E8862F70E060E02AF09A95660F16
S1130500771F881FDAF7880F9695879597F90895CE
S113051097F99F6780E870E060E008959FEF80ECB2
S1130520089500240A941616170618060906089555
S113053000240A9412161306140605060895092EBB
S11305400394000C11F4882352F0BB0F40F4BF2B2A
S113055011F460FF04C06F5F7F4F8F4F9F4F08956A
S113056057FD9058440F551F59F05F3F71F0479560
S1130570880F97FB991F61F09F3F79F08795089545
S1130580121613061406551FF2CF4695F1DF08C064
S1130590161617061806991FF1CF86957105610581
S11305A008940895E894BB2766277727CB0197F929
S11305B008950E94EC020C949F020E94910238F06C
S11305C00E94980220F0952311F00C9488020C9458
S11305D08E0211240C94D3020E94B00270F3959FF2
S11305E0C1F3950F50E0551F629FF001729FBB2726
S11305F0F00DB11D639FAA27F00DB11DAA1F649FC2
S11306006627B00DA11D661F829F2227B00DA11D74
S1130610621F739FB00DA11D621F839FA00D611DFA
S1130620221F749F3327A00D611D231F849F600D1B
S1130630211D822F762F6A2F11249F5750409AF044
S1130640F1F088234AF0EE0FFF1FBB1F661F771FD0
S1130650881F91505040A9F79E3F510580F00C949B
S113066088020C94D3025F3FE4F3983ED4F386955A
S113067077956795B795F795E7959F5FC1F7FE2B3B
S1130680880F911D9695879597F9089597FB072EE6
S113069016F4009407D077FD09D00E94880307FC64
S11306A005D03EF4909581959F4F0895709561957E
S11306B07F4F0895052E97FB1EF400940E9471034A
S11306C057FD07D00E949C0307FC03D04EF40C9402
S11306D0710350954095309521953F4F4F4F5F4F93
S11306E0089590958095709561957F4F8F4F9F4F9A
S11306F00895A29FB001B39FC001A39F700D811DF7
S11307001124911DB29F700D811D1124911D089516
S1130710AA1BBB1B51E107C0AA1FBB1FA617B70723
S113072010F0A61BB70B881F991F5A95A9F780953F
S11307309095BC01CD010895A1E21A2EAA1BBB1B02
S1130740FD010DC0AA1FBB1FEE1FFF1FA217B30799
S1130750E407F50720F0A21BB30BE40BF50B661FAF
S1130760771F881F991F1A9469F760957095809573
S113077090959B01AC01BD01CF010895F894FFCF82
S1050780030070
S9030000FC
