S01700004763634170706C69636174696F6E312E737265635B
S11300000C9434000C9451000C9451000C94510045
S11300100C9451000C9423040C9451000C9486000D
S11300200C9451000C9451000C9451000C94510008
S11300300C9451000C9451000C9451000C945100F8
S11300400C9451000C9451000C9451000C945100E8
S11300500C9451000C942F030C9451000C945100F7
S11300600C9451000C94510011241FBECFEFD8E022
S1130070DEBFCDBF11E0A0E0B1E0E4ECFFE002C0E0
S113008005900D92AA33B107D9F721E0AAE3B1E0B4
S113009001C01D92A136B207E1F70E948C020C94B4
S11300A0E0070C94000083E480937C008EE8809346
S11300B07A0008958AB184658AB98BB18B7A8BB939
S11300C08AB187758AB9E8E6F0E08081846080832C
S11300D0EDE6F0E08081886A8083089584B18062CF
S11300E084B90895E0EBF0E0808182608083E1EBE5
S11300F0F0E080818460808389EF8093B300E0E73F
S1130100F0E0808182608083789408951F920F923A
S11301100FB60F9211242F933F934F935F936F93D6
S11301207F938F939F93AF93BF93EF93FF938091AC
S11301303A0190913B01019690933B0180933A01DF
S113014065E070E00E943307892B11F40E949F023E
S113015080913A0190913B0164E170E00E94330781
S1130160892B11F40E94A20280913A0190913B01E3
S11301706CE370E00E943307892B11F40E94B302F0
S113018080913A0190913B0168EE73E00E9433073D
S1130190892B31F40E94BA0210923B0110923A0169
S11301A0FF91EF91BF91AF919F918F917F916F914B
S11301B05F914F913F912F910F900FBE0F901F9021
S11301C0189584B1866084B982EB809380008AE1BB
S11301D0809381008FE39CE990938700809386004D
S11301E008959C0140E050E060E472E48FE090E008
S11301F00E946907215031093093C5002093C4003F
S113020088E98093C10086E08093C20008959091AC
S1130210C00095FFFCCF8093C60008950F931F93F1
S1130220CF93DF9300D000D000D0CDB7DEB74AE043
S1130230BE016F5F7F4F0E94AB0700E010E004C077
S11302400E9407010F5F1F4FE1E0F0E0EC0FFD1F7C
S1130250E00FF11F80818111F3CF8AE00E94070132
S11302608DE00E94070126960FB6F894DEBF0FBEFC
S1130270CDBFDF91CF911F910F9108951092B900D6
S113028088E98093B80084E08093BC00089584EAF0
S11302908093BC008091BC008823E4F7089584E92E
S11302A08093BC0008958093BB0084E88093BC00D5
S11302B08091BC008823E4F70895882311F084EC2E
S11302C001C084E88093BC008091BC008823E4F7DB
S11302D08091BB000895CF93DF93D82FC62F0E943F
S11302E04701CC2311F08FE401C08EE40E94530136
S11302F0C11103C08D2F0E945301DF91CF91089546
S1130300CF9320E1829FC0011124C82FC86060E010
S11303108C600E946B010E944F01000060E08C2FF2
S11303200E946B010E944F01CF910895CF9360E02A
S11303308AEF0E946B010E944F0160E08EEF0E94E1
S11303406B010E944F01000061E080E00E946B019C
S113035081E00E945D01C82F0E944F0160E08AEF96
S11303600E946B010E944F0160E08EEF0E946B01BE
S11303700E944F01000061E080E00E946B0180E078
S11303800E945D010E944F0160E08AEF0E946B01B0
S11303900E944F018C2F8078CF9108950E9496017E
S11303A08111FCCF08951F93CF93DF93C82F162F8D
S11303B00E94CE01D1E0113009F0D0E08C2F807F73
S11303C08D2B182F186060E08C600E946B010E94D6
S11303D04F01000060E0812F0E946B010E944F01D9
S11303E020E1C29FC00111248D2BC82FC86060E09A
S11303F08C600E946B010E944F01000060E08C2F12
S11304000E946B010E944F01DF91CF911F910895CB
S1130410CF93DF93EC0104C0219661E00E94D301E5
S113042088818111F9CFDF91CF91089560E081E057
S11304300E94D3010E94CE0108950E943E0183EDE3
S113044090E30197F1F700C0000083E00E9480016F
S113045081EE94E00197F1F700C0000083E00E9470
S1130460800192E49A95F1F700C083E00E94800134
S113047082E48A95F1F700C082E00E94800160E086
S113048088E20E94D30160E08CE00E94D30160E026
S113049086E00E94D3010E9416020895813011F46F
S11304A080E401C080E0860F60E080680E94D30190
S11304B0089560E080E00E944E0283E091E00E9493
S11304C0080260E081E00E944E028FE091E00E9409
S11304D00802089560E080E00E944E0283E091E00B
S11304E00E94080260E081E00E944E028EE191E0E9
S11304F00E940802089560E080E00E944E0283E0BA
S113050091E00E94080260E081E00E944E028EE2C7
S113051091E00E94080208950E94720080E895E22A
S11305200E94F1000E9453000E94E1000E946E00AC
S11305300E945A000E941D020E941602FFCF0E94D0
S11305402903089580915B0190915C010E947A05D2
S11305506091590170915A0180915D0190915E0101
S11305600E943B0508950E9490030E940E040E947D
S11305701D050895CF93DF938AE00E9407018DE063
S11305800E9407018AE00E9407018DE00E94070192
S1130590CCE3D1E0888199810E940E018A819B81FC
S11305A00E940E018C819D810E940E018091580150
S11305B090E00E940E018AE00E9407018DE00E94F3
S11305C007018AE00E9407018DE00E9407018091E3
S11305D05F01909160010E940E01C0E0D0E02DC047
S11305E082E40E94070185E38C1B0E9407018AE3D1
S11305F00E94070180E20E940701E4E0F0E0EC1BA6
S1130600FD0BED5AFE4F8081882339F08FE40E9460
S113061007018EE40E94070109C08FE40E940701CC
S113062086E40E94070186E40E9407018AE00E9492
S113063007018DE00E9407012196C530D10584F29F
S11306408AE00E9407018DE00E940701DF91CF91AB
S11306500895EAE7F0E080818064808308951F9222
S11306600F920FB60F9211248F939F9380910001E4
S1130670823049F4809178009091790090935C01E4
S113068080935B0126C080910001813049F4809100
S113069078009091790090935E0180935D0119C078
S11306A080910001811109C08091780090917900B6
S11306B090935A01809359010CC0809100018330BA
S11306C041F4809178009091790090936001809337
S11306D05F0180910001823021F481E08093000168
S11306E012C080910001813019F4109200010BC0F6
S11306F080910001811104C083E08093000103C054
S113070082E080930001809100018770806480936F
S11307107C009F918F910F900FBE0F901F901895A2
S11307208BB184608BB985E38A95F1F700008BB1B6
S11307308B7F8BB98BB180618BB985E38A95F1F797
S113074000008BB18F7E8BB98BB180648BB985E34C
S11307508A95F1F700008BB18F7B8BB90895CF9206
S1130760DF92EF92FF920F931F93CF93DF93EC01ED
S1130770FC01EE5BFE4F8081813009F046C08E01A2
S1130780000F111FF801EB5BFE4F80819181A0E007
S1130790B0E0AC01BD01440F551F661F771F440F25
S11307A0551F661F771F6A017B01C80ED91EEA1EFA
S11307B0FB1EC701B60124E432E040E050E00E9491
S11307C04707F801E45CFE4F3183208380819181E7
S11307D00B97C0F4F801E45CFE4F80819181C13035
S11307E0D10549F0C230D10551F0209759F481E088
S11307F08093580107C082E08093580103C083E0CE
S113080080935801CE5BDE4F1882DF91CF911F9108
S11308100F91FF90EF90DF90CF90089580913C016D
S113082090913D010B9770F080913E0190913F01B2
S11308300B9740F080914001909141010B9710F08B
S11308401092580108951F920F920FB60F9211241F
S11308502F933F934F935F936F937F938F939F93C4
S1130860AF93BF93CF93DF93EF93FF93D9B1C0912D
S11308704B01CD27C3FF20C0D3FF09C08091840062
S11308809091850090934D0180934C0115C0809107
S113089084009091850020914C0130914D01821B80
S11308A0930B909346018093450181E0809342012C
S11308B080E090E00E94AF03C5FF20C0D5FF09C0CF
S11308C0809184009091850090934F0180934E0114
S11308D015C0809184009091850020914E01309143
S11308E04F01821B930B909348018093470181E051
S11308F08093430181E090E00E94AF03CC2304F590
S1130900DD234CF4809184009091850090935101F3
S11309108093500115C080918400909185002091AE
S1130920500130915101821B930B90934A018093A3
S1130930490181E08093440182E090E00E94AF038A
S1130940D0934B01FF91EF91DF91CF91BF91AF9184
S11309509F918F917F916F915F914F913F912F91D3
S11309600F900FBE0F901F9018959C01A4EBB0E060
S11309700E9488072FEF33E040E050E00E946907AF
S1130980622F70E080E090E00E94380620E030E0C2
S113099044E353E40E94970520E030E04AE755E43D
S11309A00E94C6060E94090668517C4F7093890014
S11309B06093880008956817790720F49C01261B2A
S11309C0370B02C020E030E0AFE3BCE90E948807A7
S11309D0DC01CB01072E7AE0B695A795979587950C
S11309E07A95D1F7702D90938B0080938A000895A7
S11309F0853D23E09207B8F49C01265C3240213502
S1130A00310598F02E523F4F2B35310580F02C5490
S1130A103F4F2B35310568F0865991098135910591
S1130A2050F481E0089585E0089584E0089583E01A
S1130A30089582E0089580E0089580915F01909187
S1130A4060010E94F80490915201891799F088235B
S1130A5079F0282F30E021503109F901ED5AFE4F89
S1130A60408191E0411190E0F901ED5AFE4F9083ED
S1130A708093520108950F931F93CF93DF93EC015A
S1130A808B0180915801482F50E020910101309151
S1130A90020142175307D1F0813049F028F0823027
S1130AA061F0833039F00BC00E94160208C00E9426
S1130AB0590205C00E946A0202C00E947B02809112
S1130AC0580190E0909302018093010180915801B4
S1130AD0823039F460E070E080E090E00E94DB0452
S1130AE004C0B801CE010E94DB04DF91CF911F91B5
S1130AF00F9108959C0190915801913051F028F084
S1130B00923089F0933051F00895C9010E94B504E0
S1130B10089588EE93E00E94B504089584E690E079
S1130B200E94B5040895C9010E94B50408950E9465
S1130B30AB050C948C060E94850658F00E947E0634
S1130B4040F029F45F3F29F00C94750651110C9480
S1130B50C0060C947B060E949D0668F39923B1F3AA
S1130B60552391F3951B550BBB27AA2762177307CF
S1130B70840738F09F5F5F4F220F331F441FAA1F63
S1130B80A9F335D00E2E3AF0E0E832D0915050401F
S1130B90E695001CCAF72BD0FE2F29D0660F771FCD
S1130BA0881FBB1F261737074807AB07B0E809F0B3
S1130BB0BB0B802DBF01FF2793585F4F3AF09E3F38
S1130BC0510578F00C9475060C94C0065F3FE4F36D
S1130BD0983ED4F3869577956795B795F7959F5F7B
S1130BE0C9F7880F911D9695879597F90895E1E0C7
S1130BF0660F771F881FBB1F621773078407BA0726
S1130C0020F0621B730B840BBA0BEE1F88F7E09580
S1130C1008950E94A50688F09F5798F0B92F992748
S1130C20B751B0F0E1F0660F771F881F991F1AF0D3
S1130C30BA95C9F714C0B13091F00E94BF06B1E073
S1130C4008950C94BF06672F782F8827B85F39F072
S1130C50B93FCCF3869577956795B395D9F73EF46C
S1130C6090958095709561957F4F8F4F9F4F089514
S1130C70E89409C097FB3EF4909580957095619532
S1130C807F4F8F4F9F4F9923A9F0F92F96E9BB27E8
S1130C909395F695879577956795B795F111F8CF64
S1130CA0FAF4BB0F11F460FF1BC06F5F7F4F8F4FCF
S1130CB09F4F16C0882311F096E911C0772321F0C5
S1130CC09EE8872F762F05C0662371F096E8862F5D
S1130CD070E060E02AF09A95660F771F881FDAF7B4
S1130CE0880F9695879597F9089597F99F6780E8F7
S1130CF070E060E008959FEF80EC089500240A946A
S1130D001616170618060906089500240A941216E2
S1130D101306140605060895092E0394000C11F415
S1130D20882352F0BB0F40F4BF2B11F460FF04C0C2
S1130D306F5F7F4F8F4F9F4F089557FD9058440F1B
S1130D40551F59F05F3F71F04795880F97FB991F26
S1130D5061F09F3F79F087950895121613061406E3
S1130D60551FF2CF4695F1DF08C016161706180670
S1130D70991FF1CF86957105610508940895E8944B
S1130D80BB2766277727CB0197F908950E94D906D8
S1130D900C948C060E947E0638F00E94850620F092
S1130DA0952311F00C9475060C947B0611240C9475
S1130DB0C0060E949D0670F3959FC1F3950F50E005
S1130DC0551F629FF001729FBB27F00DB11D639FF9
S1130DD0AA27F00DB11DAA1F649F6627B00DA11D9F
S1130DE0661F829F2227B00DA11D621F739FB00D45
S1130DF0A11D621F839FA00D611D221F749F3327B5
S1130E00A00D611D231F849F600D211D822F762F4D
S1130E106A2F11249F5750409AF0F1F088234AF02A
S1130E20EE0FFF1FBB1F661F771F881F9150504096
S1130E30A9F79E3F510580F00C9475060C94C006EA
S1130E405F3FE4F3983ED4F3869577956795B7951D
S1130E50F795E7959F5FC1F7FE2B880F911D969537
S1130E60879597F9089597FB072E16F4009407D0F9
S1130E7077FD09D00E94970707FC05D03EF49095B2
S1130E8081959F4F0895709561957F4F0895A1E2D4
S1130E901A2EAA1BBB1BFD010DC0AA1FBB1FEE1FF0
S1130EA0FF1FA217B307E407F50720F0A21BB30B3B
S1130EB0E40BF50B661F771F881F991F1A9469F7B7
S1130EC060957095809590959B01AC01BD01CF0113
S1130ED00895052E97FB1EF400940E94800757FD89
S1130EE007D00E94470707FC03D04EF40C948007F8
S1130EF050954095309521953F4F4F4F5F4F089542
S1130F0090958095709561957F4F8F4F9F4F089571
S1130F10A29FB001B39FC001A39F700D811D112436
S1130F20911DB29F700D811D1124911D0895AA1B5E
S1130F30BB1B51E107C0AA1FBB1FA617B70710F0C0
S1130F40A61BB70B881F991F5A95A9F780959095F2
S1130F50BC01CD010895BB274A3031F4992322F412
S1130F60BDE2909581959F4F0C94B707BB27FB0179
S1130F705527AA27880F991FAA1FA41710F0A41B8E
S1130F8083955051B9F7A05DAA3308F0A95DA193E8
S1130F90009779F7B111B1931192CB010C94D0075A
S1130FA0DC01FC01672F71917723E1F7329704C0CC
S1130FB07C916D9370836291AE17BF07C8F3089557
S1070FC0F894FFCFCF
S1130FC402FF00456D657267656E63792121003EF9
S1130FD43E20476F204C454654203C3C20003E3E76
S1130FE420476F205249474854203C3C20003E3E51
S10D0FF42053544F50203C3C2000D1
S9030000FC
