S01700004763634170706C69636174696F6E312E737265635B
S11300000C9434000C9451000C9451000C94510045
S11300100C9451000C94D3010C9451000C94860060
S11300200C9451000C9451000C9451000C94510008
S11300300C9451000C9451000C9451000C945100F8
S11300400C9451000C9451000C9451000C945100E8
S11300500C9451000C9411010C9451000C94510017
S11300600C9451000C94510011241FBECFEFD8E022
S1130070DEBFCDBF11E0A0E0B1E0E6E4F9E002C0EC
S113008005900D92A230B107D9F721E0A2E0B1E0CA
S113009001C01D92A232B207E1F70E94F1000C9454
S11300A0A1040C94000083E480937C008EE8809388
S11300B07A0008958AB185618AB98BB18A7E8BB939
S11300C08AB185778AB9E8E6F0E08081846080832C
S11300D0EDE6F0E080818A688083089584B18062CF
S11300E084B90895E0EBF0E0808182608083E1EBE5
S11300F0F0E080818460808389EF8093B300E0E73F
S1130100F0E0808182608083789408951F920F923A
S11301100FB60F9211242F933F934F935F936F93D6
S11301207F938F939F93AF93BF93EF93FF938091AC
S113013002019091030101969093030180930201BF
S113014065E070E00E942904892B11F40E94FC00F0
S1130150809102019091030164E170E00E942904FE
S1130160892B11F40E94FF008091020190910301F8
S11301706CE370E00E942904892B11F40E940201AF
S1130180809102019091030168EE73E00E942904BA
S1130190892B31F40E94050110920301109202018F
S11301A0FF91EF91BF91AF919F918F917F916F914B
S11301B05F914F913F912F910F900FBE0F901F9021
S11301C0189584B1866084B982EA809380008AE1BC
S11301D0809381008FE39CE990938700809386004D
S11301E008950E9472000E9453000E94E1000E9440
S11301F06E000E945A00FFCF0E94060108950E94DB
S1130200650208950E94730108950895EAE7F0E0F5
S1130210808180648083089580910A0190910B010C
S113022008951F920F920FB60F9211248F939F93EC
S113023080910001833049F4809178009091790095
S113024090930B0180930A0126C0809100018430B1
S113025049F48091780090917900909309018093FA
S1130260080119C080910001853049F4809178001B
S11302709091790090930701809306010CC08091BE
S11302800001823041F4809178009091790090933C
S113029005018093040180910001833021F484E0FE
S11302A08093000113C080910001843021F485E023
S11302B0809300010BC080910001853021F482E01D
S11302C08093000103C083E08093000180910001CA
S11302D08770806480937C009F918F910F900FBEF4
S11302E00F901F9018958BB181608BB985E38A9527
S11302F0F1F700008BB18E7F8BB90895CF92DF9216
S1130300EF92FF920F931F93CF93DF93EC01FC01C5
S1130310EE5EFE4F80818130E9F58E01000F111FE2
S1130320F801EB5EFE4F80819181A0E0B0E0AC016A
S1130330BD01440F551F661F771F440F551F661FCD
S1130340771F6A017B01C80ED91EEA1EFB1EC70176
S1130350B60124E432E040E050E00E943D04F8019C
S1130360E45FFE4F31832083CE5EDE4F188280919E
S11303700C0190910D01892B51F080910C01909109
S11303800D01069720F485B1806285B903C085B15B
S11303908F7D85B9DF91CF911F910F91FF90EF90E1
S11303A0DF90CF9008951F920F920FB60F921124F1
S11303B02F933F934F935F936F937F938F939F9369
S11303C0AF93BF93CF93DF93EF93FF93D9B1C091D2
S11303D01B01CD27C1FF20C0D1FF09C0809184003B
S11303E09091850090931D0180931C0115C080910C
S11303F084009091850020911C0130911D01821B85
S1130400930B909316018093150181E08093120160
S113041080E090E00E947E01C3FF20C0D3FF09C0AA
S1130420809184009091850090931F0180931E0118
S113043015C0809184009091850020911E01309117
S11304401F01821B930B909318018093170181E085
S11304508093130181E090E00E947E01CC2304F597
S1130460DD234CF4809184009091850090932101C8
S11304708093200115C08091840090918500209183
S1130480200130912101821B930B90931A018093D8
S1130490190181E08093140182E090E00E947E01C2
S11304A0D0931B01FF91EF91DF91CF91BF91AF9159
S11304B09F918F917F916F915F914F913F912F9178
S11304C00F900FBE0F901F9018950E940C019C0175
S11304D0A4EBB0E00E947E042FEF33E040E050E054
S11304E00E945F04622F70E080E090E00E942E037F
S11304F020E030E044E353E40E948D0220E030E049
S11305004AEF54E40E94BC030E94FF026053784FF8
S1130510709389006093880008950E94A1020C944E
S113052082030E947B0358F00E94740340F029F474
S11305305F3F29F00C946B0351110C94B6030C9497
S113054071030E94930368F39923B1F3552391F344
S1130550951B550BBB27AA2762177307840738F02E
S11305609F5F5F4F220F331F441FAA1FA9F335D08B
S11305700E2E3AF0E0E832D091505040E695001C3F
S1130580CAF72BD0FE2F29D0660F771F881FBB1FF9
S1130590261737074807AB07B0E809F0BB0B802DD7
S11305A0BF01FF2793585F4F3AF09E3F510578F003
S11305B00C946B030C94B6035F3FE4F3983ED4F3BE
S11305C0869577956795B795F7959F5FC9F7880FD7
S11305D0911D9695879597F90895E1E0660F771F29
S11305E0881FBB1F621773078407BA0720F0621BBA
S11305F0730B840BBA0BEE1F88F7E09508950E94E5
S11306009B0388F09F5798F0B92F9927B751B0F002
S1130610E1F0660F771F881F991F1AF0BA95C9F782
S113062014C0B13091F00E94B503B1E008950C9468
S1130630B503672F782F8827B85F39F0B93FCCF31B
S1130640869577956795B395D9F73EF490958095FF
S1130650709561957F4F8F4F9F4F0895E89409C01F
S113066097FB3EF490958095709561957F4F8F4FE1
S11306709F4F9923A9F0F92F96E9BB279395F695F7
S1130680879577956795B795F111F8CFFAF4BB0F75
S113069011F460FF1BC06F5F7F4F8F4F9F4F16C0D9
S11306A0882311F096E911C0772321F09EE8872F63
S11306B0762F05C0662371F096E8862F70E060E01F
S11306C02AF09A95660F771F881FDAF7880F969598
S11306D0879597F9089597F99F6780E870E060E03F
S11306E008959FEF80EC089500240A9416161706C7
S11306F018060906089500240A941216130614060F
S113070005060895092E0394000C11F4882352F071
S1130710BB0F40F4BF2B11F460FF04C06F5F7F4F29
S11307208F4F9F4F089557FD9058440F551F59F010
S11307305F3F71F04795880F97FB991F61F09F3FCA
S113074079F087950895121613061406551FF2CFF3
S11307504695F1DF08C0161617061806991FF1CF43
S113076086957105610508940895E894BB2766276A
S11307707727CB0197F908950E94CF030C94820345
S11307800E94740338F00E947B0320F0952311F03B
S11307900C946B030C94710311240C94B6030E9403
S11307A0930370F3959FC1F3950F50E0551F629F1B
S11307B0F001729FBB27F00DB11D639FAA27F00DB6
S11307C0B11DAA1F649F6627B00DA11D661F829FDD
S11307D02227B00DA11D621F739FB00DA11D621FC2
S11307E0839FA00D611D221F749F3327A00D611DDF
S11307F0231F849F600D211D822F762F6A2F1124C1
S11308009F5750409AF0F1F088234AF0EE0FFF1FF3
S1130810BB1F661F771F881F91505040A9F79E3F4A
S1130820510580F00C946B030C94B6035F3FE4F322
S1130830983ED4F3869577956795B795F795E795A0
S11308409F5FC1F7FE2B880F911D9695879597F9A9
S1130850089597FB072E16F4009407D077FD09D06E
S11308600E948D0407FC05D03EF4909581959F4F1E
S11308700895709561957F4F0895A1E21A2EAA1BE1
S1130880BB1BFD010DC0AA1FBB1FEE1FFF1FA2173C
S1130890B307E407F50720F0A21BB30BE40BF50B39
S11308A0661F771F881F991F1A9469F760957095C2
S11308B0809590959B01AC01BD01CF010895052E53
S11308C097FB1EF400940E94760457FD07D00E9403
S11308D03D0407FC03D04EF40C94760450954095E7
S11308E0309521953F4F4F4F5F4F089590958095D8
S11308F0709561957F4F8F4F9F4F0895A29FB001D0
S1130900B39FC001A39F700D811D1124911DB29F3F
S1130910700D811D1124911D0895AA1BBB1B51E16B
S113092007C0AA1FBB1FA617B70710F0A61BB70B5B
S1130930881F991F5A95A9F780959095BC01CD0100
S10909400895F894FFCFB6
S10509460300A8
S9030000FC
