S01700004763634170706C69636174696F6E312E737265635B
S11300000C9434000C9446000C9446000C94460066
S11300100C9446000C9446000C9446000C94460044
S11300200C9446000C9446000C9446000C945D001D
S11300300C9446000C9446000C9446000C94460024
S11300400C9446000C9446000C9446000C94460014
S11300500C9446000C94D7000C9446000C94460073
S11300600C9446000C94460011241FBECFEFD8E038
S1130070DEBFCDBF21E0A0E0B1E001C01D92A430FD
S1130080B207E1F70E94AE000C941E010C9400002C
S1130090E1E8F0E0808188608083808183608083F0
S11300A08FEF90E09093890080938800EFE6F0E072
S11300B0808182608083789408951F920F920FB696
S11300C00F9211242F933F934F935F936F937F93DA
S11300D08F939F93AF93BF93EF93FF93809100010E
S11300E090910101019690930101809300010E9477
S11300F0B60080910001909101016CE370E00E94D0
S1130100F600892B11F40E94B700809100019091B0
S1130110010164EF71E00E94F600892B11F40E9442
S1130120C400809100019091010168EE73E00E9487
S1130130F600892B11F40E94C500FF91EF91BF9145
S1130140AF919F918F917F916F915F914F913F916B
S11301502F910F900FBE0F901F9018950E9448008A
S11301600E94C60084B1806284B9FFCF08950E94C2
S1130170D2008130924020F085B1806285B9089523
S113018085B18F7D85B908950895089585E4809398
S11301907C00EAE7F0E08EE88083789480818064D4
S11301A080830895809102019091030108951F9224
S11301B00F920FB60F9211248F939F93EF93FF9397
S11301C080917800909179009093030180930201CB
S11301D0EAE7F0E0808180648083FF91EF919F9152
S11301E08F910F900FBE0F901F90189597FB072EBD
S11301F016F4009407D077FD09D00E940A0107FC89
S113020005D03EF4909581959F4F08957095619522
S11302107F4F0895AA1BBB1B51E107C0AA1FBB1F38
S1130220A617B70710F0A61BB70B881F991F5A957E
S1130230A9F780959095BC01CD010895F894FFCF5E
S9030000FC
