:100000000C9434000C9451000C9451000C94510049
:100010000C9451000C9451000C9451000C946A0003
:100020000C9451000C9451000C9451000C9451000C
:100030000C9451000C9451000C9451000C945100FC
:100040000C9451000C9451000C9451000C945100EC
:100050000C9451000C9402010C9451000C9451002A
:100060000C9451000C94510011241FBECFEFD8E026
:10007000DEBFCDBF11E0A0E0B1E0E4E0F3E002C0FC
:1000800005900D92A230B107D9F721E0A2E0B1E0CE
:1000900001C01D92AA30B207E1F70E94BB000C9488
:1000A00080010C940000E1EBF0E0808182608083AD
:1000B000A0EBB0E08C9182608C938081846080831F
:1000C00089EF8093B300E0E7F0E080818260808375
:1000D000789408951F920F920FB60F9211242F93C8
:1000E0003F934F935F936F937F938F939F93AF93C0
:1000F000BF93EF93FF9380910201909103010196CA
:1001000090930301809302010E94C3008091020139
:10011000909103016CE370E00E945801892B11F467
:100120000E94C400809102019091030168EE73E087
:100130000E945801892B11F40E94E800809102016D
:100140009091030160ED77E00E945801892B11F432
:100150000E94E900FF91EF91BF91AF919F918F9124
:100160007F916F915F914F913F912F910F900FBEB3
:100170000F901F9018950E9453000E94EA0084B1CE
:10018000806284B9FFCF08950F931F93CF93DF93BD
:1001900080E00E94F900EC0181E00E94F9008C01EE
:1001A00082E00E94F900C130D24030F401301240A8
:1001B00018F48130924020F085B1806285B903C087
:1001C00085B18F7D85B9DF91CF911F910F910895F2
:1001D00008950895809100018770806480937C0069
:1001E000EAE7F0E08EE88083789480818064808301
:1001F0000895E82FF0E0EE0FFF1FEC5FFE4F8081C7
:10020000918108951F920F920FB60F9211248F9330
:100210009F93EF93FF9380910001833049F4809185
:10022000780090917900909305018093040119C0A2
:1002300080910001843049F4809178009091790098
:1002400090930701809306010CC0809100018530D6
:1002500041F4809178009091790090930901809306
:10026000080180910001833021F484E08093000133
:100270000BC080910001843021F485E0809300015F
:1002800003C083E080930001809100018770806447
:1002900080937C00EAE7F0E0808180648083FF91B6
:1002A000EF919F918F910F900FBE0F901F90189517
:1002B00097FB072E16F4009407D077FD09D00E9413
:1002C0006C0107FC05D03EF4909581959F4F0895F1
:1002D000709561957F4F0895AA1BBB1B51E107C024
:1002E000AA1FBB1FA617B70710F0A61BB70B881FC6
:1002F000991F5A95A9F780959095BC01CD01089555
:04030000F894FFCF9F
:020304000300F4
:00000001FF
