S01700004763634170706C69636174696F6E312E737265635B
S11300000C9434000C9451000C9451000C94510045
S11300100C9451000C943E020C9451000C948600F4
S11300200C9451000C9451000C9451000C94510008
S11300300C9451000C9451000C9451000C945100F8
S11300400C9451000C9451000C9451000C945100E8
S11300500C9451000C947B010C9451000C945100AD
S11300600C9451000C94510011241FBECFEFD8E022
S1130070DEBFCDBF11E0A0E0B1E0EEE9FAE002C0DE
S113008005900D92A230B107D9F721E0A2E0B1E0CA
S113009001C01D92A232B207E1F70E943E010C9406
S11300A04D050C94000083E480937C008EE88093DB
S11300B07A0008958AB184658AB98BB18B7A8BB939
S11300C08AB187758AB9E8E6F0E08081846080832C
S11300D0EDE6F0E08081886A8083089584B18062CF
S11300E084B90895E0EBF0E0808182608083E1EBE5
S11300F0F0E080818460808389EF8093B300E0E73F
S1130100F0E0808182608083789408951F920F923A
S11301100FB60F9211242F933F934F935F936F93D6
S11301207F938F939F93AF93BF93EF93FF938091AC
S113013002019091030101969093030180930201BF
S113014065E070E00E94A004892B11F40E944D0127
S1130150809102019091030164E170E00E94A00487
S1130160892B11F40E9450018091020190910301A6
S11301706CE370E00E94A004892B11F40E945301E7
S1130180809102019091030168EE73E00E94A00443
S1130190892B31F40E94560110920301109202013E
S11301A0FF91EF91BF91AF919F918F917F916F914B
S11301B05F914F913F912F910F900FBE0F901F9021
S11301C0189584B1866084B982EA809380008AE1BC
S11301D0809381008FE39CE990938700809386004D
S11301E008959C0140E050E060E472E48FE090E008
S11301F00E94D604215031093093C5002093C400D5
S113020088E98093C10086E08093C20008959091AC
S1130210C00095FFFCCF8093C60008950F931F93F1
S1130220CF93DF9300D000D000D0CDB7DEB74AE043
S1130230BE016F5F7F4F0E94180500E010E004C00C
S11302400E9407010F5F1F4FE1E0F0E0EC0FFD1F7C
S1130250E00FF11F80818111F3CF8AE00E94070132
S11302608DE00E94070126960FB6F894DEBF0FBEFC
S1130270CDBFDF91CF911F910F9108950E9472001D
S113028080E895E20E94F1000E9453000E94E10080
S11302900E946E000E945A00FFCF0E9475010895CB
S11302A00E94D00208950E94DD010895CF93DF9348
S11302B080911A0190911B010E940E01C4E0D1E0CB
S11302C0888199810E940E018A819B810E940E017E
S11302D08C819D810E940E0180911A0190911B01D5
S11302E00E94F902DF91CF910895EAE7F0E080815E
S11302F08064808308951F920F920FB60F92112489
S11303008F939F9380910001833049F4809178000A
S11303109091790090931F0180931E0126C08091D3
S11303200001843049F48091780090917900909391
S113033021018093200119C080910001853049F486
S1130340809178009091790090931D0180931C0115
S11303500CC080910001823041F48091780090912A
S1130360790090931B0180931A01809100018330DE
S113037021F484E08093000113C080910001843053
S113038021F485E0809300010BC080910001853049
S113039021F482E08093000103C083E08093000194
S11303A0809100018770806480937C009F918F917D
S11303B00F900FBE0F901F9018958BB184608BB96E
S11303C085E38A95F1F700008BB18B7F8BB98BB1F4
S11303D080618BB985E38A95F1F700008BB18F7E3C
S11303E08BB98BB180648BB985E38A95F1F70000F2
S11303F08BB18F7B8BB90895CF92DF92EF92FF92EE
S11304000F931F93CF93DF93EC01FC01E65FFE4F44
S11304108081813051F58E01000F111FF801E35FD7
S1130420FE4F80819181A0E0B0E0AC01BD01440F9A
S1130430551F661F771F440F551F661F771F6A01DC
S11304407B01C80ED91EEA1EFB1EC701B60124E4B7
S113045032E040E050E00E94B404F801EC5FFE4F4B
S113046031832083C65FDE4F1882DF91CF911F91C5
S11304700F91FF90EF90DF90CF9008951F920F920D
S11304800FB60F9211242F933F934F935F936F9363
S11304907F938F939F93AF93BF93CF93DF93EF9308
S11304A0FF93D9B1C0911301CD27C3FF20C0D3FF5F
S11304B009C08091840090918500909315018093E8
S11304C0140115C08091840090918500209114013D
S11304D030911501821B930B90930E0180930D01B3
S11304E081E080930A0180E090E00E94FC01C5FF56
S11304F020C0D5FF09C0809184009091850090931D
S113050017018093160115C0809184009091850095
S11305102091160130911701821B930B90931001C7
S113052080930F0181E080930B0181E090E00E94B1
S1130530FC01CC2304F5DD234CF4809184009091DC
S11305408500909319018093180115C0809184004F
S1130550909185002091180130911901821B930B11
S1130560909312018093110181E080930C0182E049
S113057090E00E94FC01D0931301FF91EF91DF9171
S1130580CF91BF91AF919F918F917F916F915F9127
S11305904F913F912F910F900FBE0F901F90189580
S11305A020911E0130911F01A4EBB0E00E94F504DC
S11305B02FEF33E040E050E00E94D604622F70E059
S11305C080E090E00E94A50320E030E044E353E49F
S11305D00E94040320E030E04AE755E40E9433041B
S11305E00E94760368517C4F709389006093880061
S11305F008958130924020F485B1806285B90895D0
S113060085B18F7D85B908950E9418030C94F90370
S11306100E94F20358F00E94EB0340F029F45F3F7C
S113062029F00C94E20351110C942D040C94E8036A
S11306300E940A0468F39923B1F3552391F3951B9F
S1130640550BBB27AA2762177307840738F09F5FEF
S11306505F4F220F331F441FAA1FA9F335D00E2E5C
S11306603AF0E0E832D091505040E695001CCAF7C9
S11306702BD0FE2F29D0660F771F881FBB1F26178C
S113068037074807AB07B0E809F0BB0B802DBF0163
S1130690FF2793585F4F3AF09E3F510578F00C9432
S11306A0E2030C942D045F3FE4F3983ED4F3869563
S11306B077956795B795F7959F5FC9F7880F911D53
S11306C09695879597F90895E1E0660F771F881F3F
S11306D0BB1F621773078407BA0720F0621B730BF2
S11306E0840BBA0BEE1F88F7E09508950E9412045C
S11306F088F09F5798F0B92F9927B751B0F0E1F0DF
S1130700660F771F881F991F1AF0BA95C9F714C08E
S1130710B13091F00E942C04B1E008950C942C04A3
S1130720672F782F8827B85F39F0B93FCCF38695C7
S113073077956795B395D9F73EF490958095709524
S113074061957F4F8F4F9F4F0895E89409C097FBA1
S11307503EF490958095709561957F4F8F4F9F4F94
S11307609923A9F0F92F96E9BB279395F6958795D8
S113077077956795B795F111F8CFFAF4BB0F11F49B
S113078060FF1BC06F5F7F4F8F4F9F4F16C0882342
S113079011F096E911C0772321F09EE8872F762F78
S11307A005C0662371F096E8862F70E060E02AF0B9
S11307B09A95660F771F881FDAF7880F96958795A5
S11307C097F9089597F99F6780E870E060E00895CD
S11307D09FEF80EC089500240A9416161706180655
S11307E00906089500240A94121613061406050631
S11307F00895092E0394000C11F4882352F0BB0FC2
S113080040F4BF2B11F460FF04C06F5F7F4F8F4F24
S11308109F4F089557FD9058440F551F59F05F3F5F
S113082071F04795880F97FB991F61F09F3F79F00E
S113083087950895121613061406551FF2CF469590
S1130840F1DF08C0161617061806991FF1CF869512
S11308507105610508940895E894BB2766277727F6
S1130860CB0197F908950E9446040C94F9030E9461
S1130870EB0338F00E94F20320F0952311F00C945E
S1130880E2030C94E80311240C942D040E940A043E
S113089070F3959FC1F3950F50E0551F629FF001CF
S11308A0729FBB27F00DB11D639FAA27F00DB11DE8
S11308B0AA1F649F6627B00DA11D661F829F222771
S11308C0B00DA11D621F739FB00DA11D621F839FF8
S11308D0A00D611D221F749F3327A00D611D231FCE
S11308E0849F600D211D822F762F6A2F11249F571C
S11308F050409AF0F1F088234AF0EE0FFF1FBB1F1F
S1130900661F771F881F91505040A9F79E3F5105DD
S113091080F00C94E2030C942D045F3FE4F3983EC2
S1130920D4F3869577956795B795F795E7959F5F87
S1130930C1F7FE2B880F911D9695879597F9089519
S113094097FB072E16F4009407D077FD09D00E9478
S1130950040507FC05D03EF4909581959F4F0895BA
S1130960709561957F4F0895A1E21A2EAA1BBB1BB7
S1130970FD010DC0AA1FBB1FEE1FFF1FA217B30767
S1130980E407F50720F0A21BB30BE40BF50B661F7D
S1130990771F881F991F1A9469F760957095809541
S11309A090959B01AC01BD01CF010895052E97FBE5
S11309B01EF400940E94ED0457FD07D00E94B40475
S11309C007FC03D04EF40C94ED04509540953095FB
S11309D021953F4F4F4F5F4F0895909580957095A7
S11309E061957F4F8F4F9F4F0895A29FB001B39F92
S11309F0C001A39F700D811D1124911DB29F700D24
S1130A00811D1124911D0895AA1BBB1B51E107C030
S1130A10AA1FBB1FA617B70710F0A61BB70B881F8A
S1130A20991F5A95A9F780959095BC01CD01089519
S1130A30BB274A3031F4992322F4BDE29095819585
S1130A409F4F0C942405BB27FB015527AA27880F29
S1130A50991FAA1FA41710F0A41B83955051B9F72E
S1130A60A05DAA3308F0A95DA193009779F7B111AD
S1130A70B1931192CB010C943D05DC01FC01672F6D
S1130A8071917723E1F7329704C07C916D93708361
S1110A906291AE17BF07C8F30895F894FFCF24
S1050A9E03004F
S9030000FC
