S01700004763634170706C69636174696F6E312E737265635B
S11300000C9434000C9451000C9451000C94510045
S11300100C9451000C949A000C9451000C94180107
S11300200C9451000C9451000C9451000C94510008
S11300300C9451000C9451000C9451000C945100F8
S11300400C9451000C9451000C9451000C945100E8
S11300500C9451000C9401020C9451000C94510026
S11300600C9451000C94510011241FBECFEFD8E022
S1130070DEBFCDBF11E0A0E0B1E0EAE4F9E002C0E8
S113008005900D92A230B107D9F721E0A2E0B1E0CA
S113009001C01D92A232B207E1F70E947D010C94C7
S11300A0A3040C94000083E480937C008EE8809386
S11300B07A0008958AB185618AB98BB18A7E8BB939
S11300C08AB185778AB9E8E6F0E08081846080832C
S11300D0EDE6F0E080818A6880830895E82FF0E0FF
S11300E0EE5FFE4F1082813079F018F08230B9F063
S11300F008958BB181608BB985E38A95F1F700008F
S11301008BB18E7F8BB908958BB184608BB985E3F5
S11301108A95F1F700008BB18B7F8BB908958BB171
S113012080618BB985E38A95F1F700008BB18F7EEE
S11301308BB908951F920F920FB60F9211242F932B
S11301403F938F939F93499B09C080918400909122
S1130150850090930C0180930B0111C08091840061
S11301609091850020910B0130910C01821B930B1F
S1130170909306018093050181E0809302014B9BDB
S113018009C0809184009091850090930E01809322
S11301900D0111C0809184009091850020910D0182
S11301A030910E01821B930B9093080180930701F9
S11301B081E0809303014F9B09C08091840090915A
S11301C085009093100180930F0111C080918400E9
S11301D09091850020910F0130911001821B930BA7
S11301E090930A018093090181E0809304019F9117
S11301F08F913F912F910F900FBE0F901F901895E4
S113020084B1806284B90895E0EBF0E0808182607B
S11302108083E1EBF0E080818460808389EF8093C8
S1130220B300E0E7F0E080818260808378940895F1
S11302301F920F920FB60F9211242F933F934F9357
S11302405F936F937F938F939F93AF93BF93EF933A
S1130250FF938091110190911201019690931201E4
S1130260809311010E9488018091110190911201E3
S11302706CE370E00E942B04892B11F40E948B0123
S1130280809111019091120164E670E00E942B04A8
S1130290892B11F40E949C0180911101909112010B
S11302A060ED77E00E942B04892B31F40E94F50164
S11302B01092120110921101FF91EF91BF91AF9131
S11302C09F918F917F916F915F914F913F912F916A
S11302D00F900FBE0F901F90189584B1866084B95B
S11302E082EA809380008AE1809381008FE39CE915
S11302F0909387008093860008950E9404010E94D1
S113030053000E946D010E9400010E945A00FFCF19
S11303100E94F60108950E946302809119010E94CF
S11303206E008091190190E0019663E070E00E94F4
S11303302B04809319010895CF92DF92EF92FF92DC
S11303400F931F93CF93DF93C0E0D0E034C0FE013E
S1130350EE5FFE4F8081813069F5F8948E01000FC5
S1130360111FF801EB5FFE4F80819181A0E0B0E0A6
S1130370AC01BD01440F551F661F771F440F551F65
S1130380661F771F6A017B01C80ED91EEA1EFB1E79
S1130390C701B60124E432E040E050E00E943F048B
S11303A0F801ED5EFE4F31832083FE01EE5FFE4FC8
S11303B0108278942196C330D1054CF280911501B6
S11303C0909116010197059720F485B1806285B953
S11303D003C085B18F7D85B9DF91CF911F910F91B6
S11303E0FF90EF90DF90CF9008950895EAE7F0E052
S11303F080818064808308958091200190912101FF
S113040008951F920F920FB60F9211248F939F930A
S113041080910001833049F48091780090917900B3
S1130420909321018093200126C0809100018430A3
S113043049F4809178009091790090931F01809302
S11304401E0119C080910001853049F48091780023
S11304509091790090931D0180931C010CC08091B0
S11304600001823041F4809178009091790090935A
S11304701B0180931A0180910001833021F484E0F0
S11304808093000113C080910001843021F485E041
S1130490809300010BC080910001853021F482E03B
S11304A08093000103C083E08093000180910001E8
S11304B08770806480937C009F918F910F900FBE12
S11304C00F901F9018950E94FC019C01A4EBB0E0D2
S11304D00E9480042FEF33E040E050E00E9461046A
S11304E0622F70E080E090E00E94300320E030E072
S11304F044E353E40E948F0220E030E04AEF54E4E6
S11305000E94BE030E9401036053784F70938900D8
S11305106093880070938B0060938A0008950E9412
S1130520A3020C9484030E947D0358F00E94760376
S113053040F029F45F3F29F00C946D0351110C94A1
S1130540B8030C9473030E94950368F39923B1F3E1
S1130550552391F3951B550BBB27AA2762177307E5
S1130560840738F09F5F5F4F220F331F441FAA1F79
S1130570A9F335D00E2E3AF0E0E832D09150504035
S1130580E695001CCAF72BD0FE2F29D0660F771FE3
S1130590881FBB1F261737074807AB07B0E809F0C9
S11305A0BB0B802DBF01FF2793585F4F3AF09E3F4E
S11305B0510578F00C946D030C94B8035F3FE4F399
S11305C0983ED4F3869577956795B795F7959F5F91
S11305D0C9F7880F911D9695879597F90895E1E0DD
S11305E0660F771F881FBB1F621773078407BA073C
S11305F020F0621B730B840BBA0BEE1F88F7E09597
S113060008950E949D0388F09F5798F0B92F992769
S1130610B751B0F0E1F0660F771F881F991F1AF0E9
S1130620BA95C9F714C0B13091F00E94B703B1E094
S113063008950C94B703672F782F8827B85F39F093
S1130640B93FCCF3869577956795B395D9F73EF482
S113065090958095709561957F4F8F4F9F4F08952A
S1130660E89409C097FB3EF4909580957095619548
S11306707F4F8F4F9F4F9923A9F0F92F96E9BB27FE
S11306809395F695879577956795B795F111F8CF7A
S1130690FAF4BB0F11F460FF1BC06F5F7F4F8F4FE5
S11306A09F4F16C0882311F096E911C0772321F0DB
S11306B09EE8872F762F05C0662371F096E8862F73
S11306C070E060E02AF09A95660F771F881FDAF7CA
S11306D0880F9695879597F9089597F99F6780E80D
S11306E070E060E008959FEF80EC089500240A9480
S11306F01616170618060906089500240A941216F9
S11307001306140605060895092E0394000C11F42B
S1130710882352F0BB0F40F4BF2B11F460FF04C0D8
S11307206F5F7F4F8F4F9F4F089557FD9058440F31
S1130730551F59F05F3F71F04795880F97FB991F3C
S113074061F09F3F79F087950895121613061406F9
S1130750551FF2CF4695F1DF08C016161706180686
S1130760991FF1CF86957105610508940895E89461
S1130770BB2766277727CB0197F908950E94D103F9
S11307800C9484030E94760338F00E947D0320F0C9
S1130790952311F00C946D030C94730311240C94A1
S11307A0B8030E94950370F3959FC1F3950F50E031
S11307B0551F629FF001729FBB27F00DB11D639F0F
S11307C0AA27F00DB11DAA1F649F6627B00DA11DB5
S11307D0661F829F2227B00DA11D621F739FB00D5B
S11307E0A11D621F839FA00D611D221F749F3327CB
S11307F0A00D611D231F849F600D211D822F762F64
S11308006A2F11249F5750409AF0F1F088234AF040
S1130810EE0FFF1FBB1F661F771F881F91505040AC
S1130820A9F79E3F510580F00C946D030C94B80316
S11308305F3FE4F3983ED4F3869577956795B79533
S1130840F795E7959F5FC1F7FE2B880F911D96954D
S1130850879597F9089597FB072E16F4009407D00F
S113086077FD09D00E948F0407FC05D03EF49095D3
S113087081959F4F0895709561957F4F0895A1E2EA
S11308801A2EAA1BBB1BFD010DC0AA1FBB1FEE1F06
S1130890FF1FA217B307E407F50720F0A21BB30B51
S11308A0E40BF50B661F771F881F991F1A9469F7CD
S11308B060957095809590959B01AC01BD01CF0129
S11308C00895052E97FB1EF400940E94780457FDAA
S11308D007D00E943F0407FC03D04EF40C94780424
S11308E050954095309521953F4F4F4F5F4F089558
S11308F090958095709561957F4F8F4F9F4F089588
S1130900A29FB001B39FC001A39F700D811D11244C
S1130910911DB29F700D811D1124911D0895AA1B74
S1130920BB1B51E107C0AA1FBB1FA617B70710F0D6
S1130930A61BB70B881F991F5A95A9F78095909508
S10D0940BC01CD010895F894FFCF27
S105094A0300A4
S9030000FC
