S01700004763634170706C69636174696F6E312E737265635B
S11300000C9434000C9451000C9451000C94510045
S11300100C9451000C9487040C9451000C948600A9
S11300200C9451000C9451000C9451000C94510008
S11300300C9451000C9451000C9451000C945100F8
S11300400C9451000C9451000C9451000C945100E8
S11300500C9451000C9475030C9451000C945100B1
S11300600C9451000C94510011241FBECFEFD8E022
S1130070DEBFCDBF12E0A0E0B1E0EEE0FFE002C0E1
S113008005900D92A433B107D9F722E0A4E3B2E0BE
S113009001C01D92AB35B207E1F70E946F020C94C8
S11300A085070C94000083E480937C008EE88093A1
S11300B07A0008958AB184658AB98BB18B7A8BB939
S11300C08AB187758AB9E8E6F0E08081846080832C
S11300D0EDE6F0E08081886A8083089584B18963C5
S11300E084B90895E0EBF0E0808182608083E1EBE5
S11300F0F0E080818460808389EF8093B300E0E73F
S1130100F0E0808182608083789408951F920F923A
S11301100FB60F9211242F933F934F935F936F93D6
S11301207F938F939F93AF93BF93EF93FF938091AC
S113013034029091350201969093350280933402F3
S113014065E070E00E940D07892B11F40E94820281
S1130150809134029091350264E170E00E940D07B1
S1130160892B11F40E94850280913402909135020A
S11301706CE370E00E940D07892B11F40E94960233
S1130180809134029091350268EE73E00E940D076D
S1130190892B31F40E949902109235021092340294
S11301A0FF91EF91BF91AF919F918F917F916F914B
S11301B05F914F913F912F910F900FBE0F901F9021
S11301C0189584B1866084B982EB809380008AE1BB
S11301D0809381008FE39CE990938700809386004D
S11301E008959C0140E050E060E472E48FE090E008
S11301F00E942107215031093093C5002093C40087
S113020088E98093C10086E08093C20008959091AC
S1130210C00095FFFCCF8093C6000895CF93DF9371
S1130220EC0103C021960E94070188818111FACF55
S11302308AE00E9407018DE00E940701DF91CF91BF
S113024008951092B90088E98093B80084E08093FF
S1130250BC00089584EA8093BC008091BC0088238C
S1130260E4F7089584E98093BC0008958093BB006B
S113027084E88093BC008091BC008823E4F708954F
S1130280882311F084EC01C084E88093BC00809141
S1130290BC008823E4F78091BB000895CF93DF93DB
S11302A0D82FC62F0E942A01CC2311F08FE401C05D
S11302B08EE40E943601C11103C08D2F0E943601C5
S11302C0DF91CF910895CF9320E1829FC001112443
S11302D0C82FC86060E08C600E944E010E94320109
S11302E0000060E08C2F0E944E010E943201CF91E9
S11302F00895CF9360E08AEF0E944E010E9432017C
S113030060E08EEF0E944E010E943201000061E025
S113031080E00E944E0181E00E944001C82F0E94AB
S1130320320160E08AEF0E944E010E94320160E0D7
S11303308EEF0E944E010E943201000061E080E0D5
S11303400E944E0180E00E9440010E94320160E060
S11303508AEF0E944E010E9432018C2F8078CF9147
S113036008950E9479018111FCCF08951F93CF93C2
S1130370DF93C82F162F0E94B101D1E0113009F08C
S1130380D0E08C2F807F8D2B182F186060E08C605C
S11303900E944E010E943201000060E0812F0E9401
S11303A04E010E94320120E1C29FC00111248D2B15
S11303B0C82FC86060E08C600E944E010E94320128
S11303C0000060E08C2F0E944E010E943201DF91F8
S11303D0CF911F910895CF93DF93EC0104C0219630
S11303E061E00E94B60188818111F9CFDF91CF913C
S11303F0089560E081E00E94B6010E94B101089571
S11304000E94210183ED90E30197F1F700C0000001
S113041083E00E94630181EE94E00197F1F700C04C
S1130420000083E00E94630192E49A95F1F700C012
S113043083E00E94630182E48A95F1F700C082E0C0
S11304400E94630160E088E20E94B60160E08CE0F3
S11304500E94B60160E086E00E94B6010E94F901A4
S11304600895813011F480E401C080E0860F60E0DB
S113047080680E94B601089560E080E00E94310225
S113048083E091E00E94EB0160E081E00E94310290
S11304908FE091E00E94EB01089560E080E00E940B
S11304A0310283E091E00E94EB0160E081E00E9470
S11304B031028EE191E00E94EB01089560E080E05A
S11304C00E94310283E091E00E94EB0160E081E050
S11304D00E9431028EE291E00E94EB0108950E9495
S11304E0720080E895E20E94F1000E9453000E948D
S11304F0E1000E946E000E945A000E9400020E94C5
S1130500F901FFCF0E946F030895809155029091E5
S113051056020E94540560915302709154028091D6
S11305205702909158020E94150508950E94820472
S1130530089508959C01A4EBB0E00E9462072FEF98
S113054033E040E050E00E944307622F70E080E017
S113055090E00E94120620E030E044E353E40E945D
S1130560710520E030E04AE755E40E94A0060E94AD
S1130570E30568517C4F7093890060938800089567
S11305806817790720F49C01261B370B02C020E072
S113059030E0AFE3BCE90E946207DC01CB01072E27
S11305A07AE0B695A795979587957A95D1F7702DAA
S11305B090938B0080938A000895853D23E09207F1
S11305C0B8F49C01265C32402135310598F02E5256
S11305D03F4F2B35310580F02C543F4F2B353105DF
S11305E068F0865991098135910550F481E00895A8
S11305F085E0089584E0089583E0089582E00895F5
S113060080E00895CF938091590290915A020E94FC
S1130610DD02C82F80913602C81709F45EC0CC23CE
S113062009F459C08FEF8C0F90E0FC01E95CFD4F99
S1130630308121E0311120E0FC01E95CFD4F208391
S1130640C33019F128F4C13041F0C23091F043C0F5
S1130650C43039F1C53089F13EC0222329F08AE340
S113066091E00E940E0137C081E591E00E940E01E5
S113067032C0222329F08AE691E00E940E012BC0A9
S113068084E891E00E940E0126C0222329F080EA2A
S113069091E00E940E011FC08AEB91E00E940E01BE
S11306A01AC0222329F086ED91E00E940E0113C0A6
S11306B080EF91E00E940E010EC0222361F08CE0D5
S11306C092E00E940E0183B7817F846083BF83B769
S11306D0816083BF8895C0933602CF910895EAE77D
S11306E0F0E080818064808308951F920F920FB69A
S11306F00F9211242F933F934F935F936F937F93A4
S11307008F939F93AF93BF93EF93FF9380910001D7
S1130710823049F480917800909179009093560248
S11307208093550228C080910001813049F4809162
S113073078009091790090935802809357021BC0DF
S113074080910001811109C0809178009091790015
S113075090935402809353020EC080910001833021
S113076051F4809178009091790090935A0280938B
S113077059020E94020380910001823021F481E039
S11307808093000112C080910001813019F410920D
S113079000010BC080910001811104C083E08093AB
S11307A0000103C082E08093000180910001877002
S11307B0806480937C00FF91EF91BF91AF919F91F2
S11307C08F917F916F915F914F913F912F910F90F6
S11307D00FBE0F901F901895AF92BF92CF92DF92E9
S11307E0FF920F931F93CF93DF93F82EC82FD0E07F
S11307F0FE01EE5BFD4F8081813009F045C08E0122
S1130800000F111FF801EB5BFD4F80819181A0E087
S1130810B0E0AC01BD01440F551F661F771F440FA4
S1130820551F661F771F5A016B01A80EB91ECA1EF9
S1130830DB1EC601B50124E432E040E050E00E9432
S11308402107F801E45CFD4F31832083808191818D
S11308500B97B8F4BB24B394FB1461F0FB1430F091
S11308606894CC24C1F8FC1449F00BC081E0809357
S1130870520207C082E08093520203C083E0809357
S11308805202CE5BDD4F1882DF91CF911F910F9101
S1130890FF90DF90CF90BF90AF90089580913C027D
S11308A090913D020B9770F080913E0290913F022F
S11308B00B9740F080914002909141020B9710F009
S11308C01092520208958BB184608BB983E08A95AB
S11308D0F1F700008BB18B7F8BB98BB180618BB941
S11308E083E08A95F1F700008BB18F7E8BB98BB1D1
S11308F080648BB983E08A95F1F700008BB18F7B1C
S11309008BB908950E9463040E944E0408951F92B7
S11309100F920FB60F9211242F933F934F935F932F
S11309206F937F938F939F93AF93BF93CF93DF93F3
S1130930EF93FF93D9B1C0914B02CD27C3FF1FC0E2
S1130940D3FF09C0809184009091850090934D025B
S113095080934C0214C08091840090918500209172
S11309604C0230914D02821B930B9093460280936C
S1130970450281E08093420280E00E94EC03C5FFBF
S11309801EC0D5FF09C0809184009091850090938A
S11309904F0280934E0213C0809184009091850091
S11309A020914E0230914F02821B930B9093480288
S11309B08093470281E0809343020E94EC03CC239E
S11309C0FCF4DD234CF48091840090918500909395
S11309D051028093500214C080918400909185004C
S11309E02091500230915102821B930B90934A0242
S11309F08093490281E08093440282E00E94EC03E8
S1130A00D0934B02FF91EF91DF91CF91BF91AF91C2
S1130A109F918F917F916F915F914F913F912F9112
S1130A200F900FBE0F901F9018950F931F93CF93A5
S1130A30DF93EC018B0180915202482F50E020910A
S1130A4001013091020142175307D1F0813049F07E
S1130A5028F0823061F0833039F00BC00E94F90134
S1130A6008C00E943C0205C00E944D0202C00E94C0
S1130A705E028091520290E0909302018093010102
S1130A8080915202823039F460E070E080E090E0BE
S1130A900E94C00204C0B801CE010E94C002DF91CE
S1130AA0CF911F910F9108959C0190915202913022
S1130AB051F028F0923089F0933051F00895C90133
S1130AC00E949A02089588EE93E00E949A02089583
S1130AD084E690E00E949A020895C9010E949A0255
S1130AE008950E9485050C9466060E945F0658F0DE
S1130AF00E94580640F029F45F3F29F00C944F06F9
S1130B0051110C949A060C9455060E94770668F3CA
S1130B109923B1F3552391F3951B550BBB27AA27B2
S1130B2062177307840738F09F5F5F4F220F331FEC
S1130B30441FAA1FA9F335D00E2E3AF0E0E832D0B4
S1130B4091505040E695001CCAF72BD0FE2F29D0B7
S1130B50660F771F881FBB1F261737074807AB0789
S1130B60B0E809F0BB0B802DBF01FF2793585F4FFE
S1130B703AF09E3F510578F00C944F060C949A0677
S1130B805F3FE4F3983ED4F3869577956795B795E0
S1130B90F7959F5FC9F7880F911D9695879597F9EB
S1130BA00895E1E0660F771F881FBB1F6217730764
S1130BB08407BA0720F0621B730B840BBA0BEE1F79
S1130BC088F7E09508950E947F0688F09F5798F073
S1130BD0B92F9927B751B0F0E1F0660F771F881F3E
S1130BE0991F1AF0BA95C9F714C0B13091F00E9458
S1130BF09906B1E008950C949906672F782F8827F9
S1130C00B85F39F0B93FCCF3869577956795B3957E
S1130C10D9F73EF490958095709561957F4F8F4FED
S1130C209F4F0895E89409C097FB3EF490958095F2
S1130C30709561957F4F8F4F9F4F9923A9F0F92F9E
S1130C4096E9BB279395F695879577956795B7951C
S1130C50F111F8CFFAF4BB0F11F460FF1BC06F5F02
S1130C607F4F8F4F9F4F16C0882311F096E911C014
S1130C70772321F09EE8872F762F05C0662371F035
S1130C8096E8862F70E060E02AF09A95660F771F49
S1130C90881FDAF7880F9695879597F9089597F93D
S1130CA09F6780E870E060E008959FEF80EC08950E
S1130CB000240A9416161706180609060895002437
S1130CC00A9412161306140605060895092E0394B1
S1130CD0000C11F4882352F0BB0F40F4BF2B11F425
S1130CE060FF04C06F5F7F4F8F4F9F4F089557FD84
S1130CF09058440F551F59F05F3F71F04795880F86
S1130D0097FB991F61F09F3F79F08795089512161C
S1130D1013061406551FF2CF4695F1DF08C01616C8
S1130D2017061806991FF1CF869571056105089479
S1130D300895E894BB2766277727CB0197F9089590
S1130D400E94B3060C9466060E94580638F00E946E
S1130D505F0620F0952311F00C944F060C94550671
S1130D6011240C949A060E94770670F3959FC1F3A0
S1130D70950F50E0551F629FF001729FBB27F00D45
S1130D80B11D639FAA27F00DB11DAA1F649F66279A
S1130D90B00DA11D661F829F2227B00DA11D621FE9
S1130DA0739FB00DA11D621F839FA00D611D221FA3
S1130DB0749F3327A00D611D231F849F600D211D87
S1130DC0822F762F6A2F11249F5750409AF0F1F00A
S1130DD088234AF0EE0FFF1FBB1F661F771F881F73
S1130DE091505040A9F79E3F510580F00C944F0656
S1130DF00C949A065F3FE4F3983ED4F38695779576
S1130E006795B795F795E7959F5FC1F7FE2B880F18
S1130E10911D9695879597F9089597FB072E16F4DB
S1130E20009407D077FD09D00E94710707FC05D014
S1130E303EF4909581959F4F0895709561957F4FED
S1130E400895A1E21A2EAA1BBB1BFD010DC0AA1F07
S1130E50BB1FEE1FFF1FA217B307E407F50720F01F
S1130E60A21BB30BE40BF50B661F771F881F991F9A
S1130E701A9469F760957095809590959B01AC01E3
S1130E80BD01CF010895052E97FB1EF400940E9426
S1130E905A0757FD07D00E94210707FC03D04EF4E0
S1130EA00C945A0750954095309521953F4F4F4FDC
S1130EB05F4F089590958095709561957F4F8F4F02
S1130EC09F4F0895A29FB001B39FC001A39F700DCF
S1130ED0811D1124911DB29F700D811D1124911D3E
S1130EE00895AA1BBB1B51E107C0AA1FBB1FA6176D
S1130EF0B70710F0A61BB70B881F991F5A95A9F7BF
S1110F0080959095BC01CD010895F894FFCF23
S1130F0E02FF00456D657267656E63792121003EAF
S1130F1E3E20476F204C454654203C3C20003E3E2C
S1130F2E20476F205249474854203C3C20003E3E07
S1130F3E2053544F50203C3C2000EC9789EB9CA846
S1130F4EEBA5BC20ECBCB0EC8AB5EB8B88EB8BA488
S1130F5E00EC9789EB9CA8EBA5BC20EABB90EC8A2D
S1130F6EB5EB8B88EB8BA40D0A00EC9790EC96B442
S1130F7EECBBA8EC9D8420ECBCB0EC8AB5EB8B8862
S1130F8EEB8BA400EC9790EC96B4ECBBA8EC9D8490
S1130F9E20EABB90EC8AB5EB8B88EB8BA40D0A0090
S1130FAEEBB984EC8381EB93B1EC9D8420ECBCB063
S1130FBEEC8AB5EB8B88EB8BA400EBB984EC8381C4
S1130FCEEB93B1EC9D8420EABB90EC8AB5EB8B8855
S1130FDEEB8BA40D0A00EC8381ED96A5EB93B1EC9B
S1130FEE9D8420ECBCB0EC8AB5EB8B88EB8BA40013
S1130FFEEC8381ED96A5EB93B1EC9D8420EABB9036
S113100EEC8AB5EB8B88EB8BA40D0A00ED9484EB84
S113101EA19CEAB7B8EB9EA8EC9D8420ECA285EBCC
S113102EA38CED9598EAB2A0EC8AB5EB8B88EB8B8A
S107103EA40D0A00EF
S9030000FC
