:100000000C9434000C9446000C9446000C9446006A
:100010000C9446000C9446000C9446000C94460048
:100020000C9446000C9446000C9446000C945D0021
:100030000C9446000C9446000C9446000C94460028
:100040000C9446000C9446000C9446000C94460018
:100050000C9446000C9446000C9446000C94460008
:100060000C9446000C94460011241FBECFEFD8E03C
:10007000DEBFCDBF21E0A0E0B1E001C01D92A23003
:10008000B207E1F70E94AE000C94E6000C94000069
:10009000E1E8F0E0808188608083808183608083F4
:1000A0008FEF90E09093890080938800EFE6F0E076
:1000B000808182608083789408951F920F920FB69A
:1000C0000F9211242F933F934F935F936F937F93DE
:1000D0008F939F93AF93BF93EF93FF938091000112
:1000E00090910101019690930101809300010E947B
:1000F000B40080910001909101016CE370E00E94D6
:10010000BE00892B11F40E94B500809100019091EE
:10011000010164EF71E00E94BE00892B11F40E947E
:10012000B600809100019091010168EE73E00E9499
:10013000BE00892B11F40E94BA00FF91EF91BF918C
:10014000AF919F918F917F916F915F914F913F916F
:100150002F910F900FBE0F901F9018950E9448008E
:1001600084B1806284B9FFCF0895089585B180621B
:1001700085B9089585B18F7D85B9089597FB072EC0
:1001800016F4009407D077FD09D00E94D20007FC36
:1001900005D03EF4909581959F4F08957095619597
:1001A0007F4F0895AA1BBB1B51E107C0AA1FBB1FAD
:1001B000A617B70710F0A61BB70B881F991F5A95F3
:1001C000A9F780959095BC01CD010895F894FFCFD3
:00000001FF
